razielpanic@Iodine com.youshriek.xr18fx.sdPlugin % node xr18-meters-decode.js
blob length bytes = 80
00 0x2800 10240
01 0x0000 0
02 0x3ca4 15524
03 0xa2a3 41635
04 0x779f 30623
05 0xcaa0 51872
06 0xd3b3 54195
07 0x2c9b 11419
08 0x8e9e 36510
09 0x1cab 7339
10 0x78a4 30884
11 0x9ba1 39841
12 0xd898 55448
13 0xac9c 44188
14 0xa19f 41375
15 0xaaa5 43685
16 0x249b 9371
17 0xc29d 49821
18 0x82a6 33446
19 0xa0a7 41127
20 0x32f3 13043
21 0x32f3 13043
22 0x0080 128
23 0x0080 128
24 0x0080 128
25 0x0080 128
26 0x0080 128
27 0x0080 128
28 0x0080 128
29 0x0080 128
30 0x0080 128
31 0x0080 128
32 0x0080 128
33 0x0080 128
34 0x0080 128
35 0x0080 128
36 0x28f3 10483
37 0x28f3 10483
38 0x2bf3 11251
39 0x2bf3 11251
razielpanic@Iodine com.youshriek.xr18fx.sdPlugin % node xr18-meters-decode.js
blob length bytes = 80
00 0x2800 10240
01 0x0000 0
02 0x41a5 16805
03 0xd6a3 54947
04 0x4d9c 19868
05 0xb2a1 45729
06 0xd9b1 55729
07 0x819a 33178
08 0x659d 26013
09 0x34ab 13483
10 0xe7a4 59300
11 0x77a0 30624
12 0x169a 5786
13 0xa49a 42138
14 0x9c9f 40095
15 0x97a5 38821
16 0xae9a 44698
17 0x9c9d 40093
18 0xb8a7 47271
19 0x03a8 936
20 0x63f3 25587
21 0x63f3 25587
22 0x0080 128
23 0x0080 128
24 0x0080 128
25 0x0080 128
26 0x0080 128
27 0x0080 128
28 0x0080 128
29 0x0080 128
30 0x0080 128
31 0x0080 128
32 0x0080 128
33 0x0080 128
34 0x0080 128
35 0x0080 128
36 0x5af3 23283
37 0x5af3 23283
38 0x5cf3 23795
39 0x5cf3 23795



22:38:44.955634 IP 192.168.1.37.10024 > 192.168.1.15.57420: UDP, length 104
	0x0000:  4500 0084 613f 0000 8011 55a5 c0a8 0125  E...a?....U....%
	0x0010:  c0a8 010f 2728 e04c 0070 c481 6d65 7465  ....'(.L.p..mete
	0x0020:  7273 2f31 0000 0000 2c62 0000 0000 0054  rs/1....,b.....T
	0x0030:  2800 0000 c2a4 15a4 429e 6ea2 6cbb 809b  (.......B.n.l...
	0x0040:  609d 56aa 1ba5 d2a0 5f9a 3c9a 6a9b 35a8  `.V....._.<.j.5.
	0x0050:  e99a b59c 31a7 a2a7 0080 0080 0080 0080  ....1...........
	0x0060:  0080 0080 0080 0080 0080 0080 0080 0080  ................
	0x0070:  0080 0080 0080 0080 0080 0080 0080 0080  ................
	0x0080:  0080 0080                                ....


22:41:48.456550 IP 192.168.1.37.10024 > 192.168.1.15.57420: UDP, length 104
	0x0000:  4500 0084 b47d 0000 8011 0267 c0a8 0125  E....}.....g...%
	0x0010:  c0a8 010f 2728 e04c 0070 f48b 6d65 7465  ....'(.L.p..mete
	0x0020:  7273 2f31 0000 0000 2c62 0000 0000 0054  rs/1....,b.....T
	0x0030:  2800 0000 3ca4 76a2 959c 15a0 ffb5 ea9c  (...<.v.........
	0x0040:  d19c d5aa dfa4 60a2 be99 249d 879c 8aa7  ......`...$.....
	0x0050:  379c cd9b ada6 80a7 21fe 21fe 0080 0080  7.......!.!.....
	0x0060:  0080 0080 0080 0080 0080 0080 0080 0080  ................
	0x0070:  0080 0080 0080 0080 0080 0080 0080 0080  ................
	0x0080:  0080 0080  